:1000000026C040C03FC03EC03DC03CC03BC03AC01F
:1000100039C0D9C137C036C035C034C033C032C092
:1000200031C030C02FC020204453313330372044FA
:10003000656D6F002020456C656374726F6E696337
:1000400073002020202065587472656D65001124AE
:100050001FBECFE5D4E0DEBFCDBF11E0A0E6B0E02B
:10006000E2E5F2E102C005900D92A631B107D9F7A1
:1000700021E0A6E1B1E001C01D92A435B207E1F78D
:1000800007D1E5C8BDCF8F929F92AF92BF92CF921A
:10009000DF92EF92FF920F931F93CF93DF93F7D6E8
:1000A000982E0FD7882E27D7A82E3ED7C82EA1105E
:1000B00003C0882009F48AC0D12CCA2DD0E0E82CD6
:1000C000F12C092D10E0B12C60E081E0F0D282EA41
:1000D00090E03ED460E080E075D662E0CE019ED52F
:1000E00060E083E06FD662E0C70198D560E086E00B
:1000F00069D662E0C80192D560E089E0CC20E9F0E1
:1001000061D683EB90E024D461E08B2D8D0D5AD61F
:1001100089EB90E01DD481E065D28230D1F083304C
:1001200089F0813089F681E0D1101DC0A81609F44C
:1001300052C0AA94CA2DD0E0C7CF44D686EB90E037
:1001400007D4E2CF84E0D81611F1D394BD2CBB0CB8
:10015000BBCFD11012C08CE0A81609F441C0A39403
:10016000CA2DD0E0B1CFD8121FC081102BC09BE3A5
:10017000892E2BE3E22EF12CA7CF81E0D8120AC002
:100180008BE38816B1F18394E82CF12C9DCFD12C10
:10019000B12C9ACF82E0D81230C08BE3981629F1A7
:1001A0009394092D10E090CF82E0D81226C09110D0
:1001B00005C08BE3982E0BE310E086CF9A94092DAF
:1001C00010E082CF8A94E82CF12C7ECF911074CF6E
:1001D0004CE0A42E71CF3CE0A32ECCE0D0E074CF55
:1001E000AA24A394C1E0D0E06FCF912C00E010E0EE
:1001F0006BCF812CE12CF12C67CF83E0D81205C0A6
:1002000081E0C11080E0C82E5FCF84E0D8125CCFBF
:10021000892DA3D6882371F1882DB2D6882351F178
:100220008A2DC1D6882331F18C2DEDD6882311F18A
:1002300060E081E03CD28CEC90E08AD361E080E029
:10024000C1D586ED90E084D344E620E030E0C901DA
:100250000197F1F74150D9F781E0DF91CF911F91DC
:100260000F91FF90EF90DF90CF90BF90AF909F9055
:100270008F90089560E081E01AD28EE091E068D31B
:1002800061E080E09FD58CEB90E062D380E0E5CF29
:10029000CF93DF93CDB7DEB72C970FB6F894DEBFC0
:1002A0000FBECDBF80E033D260E080E08BD582E42A
:1002B00090E004D461E080E085D584E390E0FED353
:1002C0002FEF87EA91E6215080409040E1F700C08F
:1002D000000060E081E0EBD1B0D581110DC060E09D
:1002E00081E0E5D18EE091E033D361E080E06AD532
:1002F00084EE90E02DD3FFCF2ED060E081E0D7D107
:1003000086E290E0DBD313C061E082E05BD5CE01F2
:1003100001961ED380E066D18330D9F02FEF89E6B5
:1003200098E1215080409040E1F700C00000CE01EC
:1003300001968AD68111E8CF60E081E0B8D185EFDF
:1003400090E006D361E080E03DD586E091E000D307
:10035000FFCF99DED2CF81E091E0DC0180933B01B9
:1003600090933C01A0933D01B0933E0180933701EF
:1003700090933801A0933901B0933A018BE49BE448
:10038000DC0180934B0190934C01A0934D01B093FD
:100390004E018AE09AE0DC0180934F019093500176
:1003A000A0935101B0935201A098A198A298A3984C
:1003B000A89AA99AAA9AAB9A84E083BF89B7816068
:1003C00089BF789408951F920F920FB60F9211244F
:1003D0008F929F92AF92BF92CF92DF92EF92FF9255
:1003E0000F931F932F933F934F935F936F937F933D
:1003F0008F939F93AF93BF93CF93DF93EF93FF932D
:10040000A09116012A2F30E051E040E071E0842FE6
:1004100090E04130B9F0423009F450C04330F9F077
:10042000FC01EE0FFF1FE80FF91FE20FF31FE15C65
:10043000FE4F70835430F9F04F5F5F5F842F90E080
:10044000413049F763B36170FC01EE0FFF1FE80F05
:10045000F91FE20FF31FE15CFE4F6083EDCF43B362
:10046000FC01EE0FFF1FE80FF91FE20FF31FE15C25
:10047000FE4F4470408381E08A0F809316018330E1
:1004800001F1FF91EF91DF91CF91BF91AF919F91DA
:100490008F917F916F915F914F913F912F911F911C
:1004A0000F91FF90EF90DF90CF90BF90AF909F9013
:1004B0008F900F900FBE0F901F90189563B36270CE
:1004C000C3CF1092160107E311E04BE351E0CBE4F8
:1004D0008C2EC1E09C2E2FE431E0A1E4B1E080E459
:1004E00091E0F801BB24B394DBE4CD2E1AE0A12EF9
:1004F000DE2ED01AF080EA01F992AE01BD01625001
:100500007109EB016881EC01611121C068816623EA
:1005100099F06C91662381F0B082E401C882319633
:10052000DFEF8D1A9D0A2F5F3F4F1396039661E010
:10053000EB33F607E9F6A5CF1082C1E0FC1691F087
:10054000E4016881662339F061506883E8CF6881EF
:100550006130F9F6E1CFE90168816150688361118A
:10056000DECFA882609160006F3149F16091600038
:10057000E0906100772767FD70956F5F7F4FFF24E4
:10058000E7FCF0946E157F05F1F0609160006F312B
:1005900031F1609160006F5F609360006091600076
:1005A000772767FD7095695E7E4FEB01D882609179
:1005B00061006F3F09F0B3CF10926100B0CF60913E
:1005C00061006111D3CF609161006F5F6093610042
:1005D000609161006032C9F610926100D6CF10922E
:1005E0006000DCCF81111CC0809161008F3F09F158
:1005F000E0916100FF27E7FDF095E95EFE4F808105
:1006000020916100909160002917A9F090916100FC
:100610009F31B9F0909161009F5F909361000895C0
:10062000809161008F3F21F7809161008F3FC1F37E
:10063000DFCF83E608959FEF909360009093610071
:10064000089510926100089581B3877881BBC09AA4
:10065000C29882E08A95F1F700C0979A92E09A9545
:10066000F1F700C080B38695869586958295807F48
:1006700092E09A95F1F700C0979895E09A95F1F776
:100680000000979A92E09A95F1F700C090B392E03B
:100690009A95F1F700C0979895E09A95F1F70000C8
:1006A00087FDDBCFC09881B3886781BB0895982F01
:1006B00092959F708F70662341F1C29A22E02A952D
:1006C000F1F700C0979A22B3990F990F990F2778E5
:1006D000922B92BB95E09A95F1F70000979825E050
:1006E0002A95F1F70000979A92B3880F880F880F28
:1006F0009778892B82BB85E08A95F1F7000097985F
:1007000095E09A95F1F700009FCFC298D7CFCF938D
:10071000DF93C82F2FEF81EE94E02150804090406E
:10072000E1F700C0000082B3877882BB9798C09839
:10073000C29881B3886781BB8F9ABA9AB89A00C071
:1007400000C00000979A949A25E02A95F1F70000DE
:10075000979885E08A95F1F700008FEA94E0019779
:10076000F1F700C00000C29892E09A95F1F700C03E
:10077000979A22B32778206122BB25E02A95F1F7CA
:100780000000979885E08A95F1F70000979A22B3C8
:100790002778206422BB95E09A95F1F7000097989E
:1007A00025E02A95F1F700004FDFDC2FDF70C298BB
:1007B00082E08A95F1F700C0979A92B32C2F229588
:1007C0002F70220F220F220F9778292B22BB95E042
:1007D0009A95F1F70000979825E02A95F1F7000027
:1007E000979A92B32D2F2860220F220F220F97780D
:1007F000292B22BB85E08A95F1F70000979895E0B8
:100800009A95F1F7000020DFC29822E02A95F1F7CF
:1008100000C0979A22B39C2F92959F70990F990FC1
:10082000990F2778922B92BB85E08A95F1F700000B
:10083000979895E09A95F1F70000979A92B38D2FCB
:100840008C60880F880F880F9778892B82BB25E0F2
:100850002A95F1F70000979885E08A95F1F7000056
:10086000F3DEC29892E09A95F1F700C0979A82B3AE
:100870008778806282BB25E02A95F1F7000097987F
:1008800085E08A95F1F70000979A82B3877882BB5A
:1008900095E09A95F1F70000979825E02A95F1F7F1
:1008A0000000D2DEC2E6D0E08991C29A92E09A9529
:1008B000F1F700C0979A22B3982F92959F70990FE5
:1008C000990F990F2778922B92BB25E02A95F1F783
:1008D0000000979895E09A95F1F70000979A92B3E7
:1008E0008F70880F880F880F9778892B82BB25E03F
:1008F0002A95F1F70000979885E08A95F1F70000B6
:10090000A3DE90E0C23AD90779F6C29822E02A9590
:10091000F1F700C0979A82B3877882BB85E08A9509
:10092000F1F70000979895E09A95F1F70000979AF3
:1009300082B38778886082BB25E02A95F1F70000B2
:10094000979885E08A95F1F70000DF91CF917CCEF2
:100950000F931F93CF93DF938C01FC018081811152
:1009600033C067C0E8012196F80181818053C29AA3
:10097000883008F063C0F2E0FA95F1F700C0979A6A
:1009800092B3977892BB95E09A95F1F7000097980B
:10099000E5E0EA95F1F70000979A92B3880F880F87
:1009A000880F9778892B82BBF5E0FA95F1F7000064
:1009B000979885E08A95F1F7000046DE8E010F5F7B
:1009C0001F4F89818823A9F1853261F2C29A92E092
:1009D0009A95F1F700C0979A22B3982F92959F703D
:1009E000990F990F990F2778922B92BBE5E0EA9522
:1009F000F1F700009798F5E0FA95F1F70000979A63
:100A000092B38F70880F880F880F9778892B82BBDD
:100A100085E08A95F1F70000979895E09A95F1F7AF
:100A2000000012DEE8018E010F5F1F4F89818111E6
:100A3000CBCFDF91CF911F910F91089592E09A95BE
:100A4000F1F700C0979A82B38778806182BBE5E0B6
:100A5000EA95F1F700009798F5E0FA95F1F70000B4
:100A6000979A82B38778886282BB85E08A95F1F78E
:100A70000000979895E09A95F1F70000E5DDF80100
:100A80008181C29AF2E0FA95F1F700C0979A22B3F9
:100A9000982F92959F70990F990F990F2778922B05
:100AA00092BB95E09A95F1F700009798E5E0EA95FA
:100AB000F1F70000979A92B38F7070CF1F93CF9386
:100AC000DF93EC01FC018491811133C0A3C0219616
:100AD000FE01149180ED810FC29A883008F048C061
:100AE000F2E0FA95F1F700C0979A92B3977892BB2B
:100AF00095E09A95F1F700009798E5E0EA95F1F70F
:100B00000000979A92B3880F880F880F9778892BE7
:100B100082BBF5E0FA95F1F70000979885E08A9599
:100B2000F1F7000091DD2196FE018491882309F4FC
:100B300071C0853261F2C29AF2E0FA95F1F700C015
:100B4000979A22B3982F92959F70990F990F990FAA
:100B50002778922B92BB95E09A95F1F70000979831
:100B6000E5E0EA95F1F70000979A92B38F70CBCF4A
:100B700092E09A95F1F700C0979A82B387788061E6
:100B800082BBE5E0EA95F1F700009798F5E0FA9569
:100B9000F1F70000979A82B38778886282BB85E07C
:100BA0008A95F1F70000979895E09A95F1F7000083
:100BB0004BDDC29AE2E0EA95F1F700C0979A92B352
:100BC000812F82958F70880F880F880F9778892BD7
:100BD00082BBF5E0FA95F1F70000979885E08A95D9
:100BE000F1F70000979A82B31F70110F110F110FC8
:100BF0008778182B12BB95E09A95F1F7000097982B
:100C0000E5E0EA95F1F700001FDD2196FE018491F1
:100C100081118FCFDF91CF911F910895DF92EF92D5
:100C2000FF920F931F93CF93DF93CDB7DEB7279734
:100C30000FB6F894DEBF0FBECDBFD62E9E012F5F3C
:100C40003F4F790125E0F70111922A95E9F797FDC9
:100C500083C0009709F12AE030E0B901D1D28D8339
:100C600061157105C9F0CB01B901CAD28C83611538
:100C7000710591F0CB01B901C3D28B836115710568
:100C800059F0CB01B901BCD28A836115710521F0FD
:100C9000CB01B901B5D289832FEFD21609F44DC02B
:100CA00005E010E00D191109D7FC13950530110569
:100CB000B4F5F701E00FF11F8081805DC29A32E048
:100CC0003A95F1F700C0979A22B3982F92959F70AA
:100CD000990F990F990F2778922B92BB95E09A95CF
:100CE000F1F700009798E5E0EA95F1F70000979A90
:100CF00092B38F70880F880F880F9778892B82BBEB
:100D0000F5E0FA95F1F70000979825E02A95F1F7BC
:100D100000009ADC0F5F1F4F0530110554F2279633
:100D20000FB6F894DEBF0FBECDBFDF91CF911F91FC
:100D30000F91FF90EF90DF9008958981811136C067
:100D40008A81811139C08B81811139C08C818111D7
:100D500030C004E010E0ADCFC29AF2E0FA95F1F7AE
:100D600000C0979A22B32778206122BB25E02A95FC
:100D7000F1F70000979835E03A95F1F70000979A5F
:100D800022B32778286622BBE5E0EA95F1F7000058
:100D90009798F5E0FA95F1F700008E839F8354DC75
:100DA0008E819F8191958195910955CF00E010E04A
:100DB00080CF03E010E07DCF01E010E07ACF02E0C9
:100DC00010E077CF8431A0F5623099F1633099F16A
:100DD000613009F48064C29892E09A95F1F700C0FE
:100DE000979A22B3982F906892959F70990F990FB8
:100DF000990F2778922B92BB95E09A95F1F7000016
:100E0000979895E09A95F1F70000979A92B38F70B2
:100E1000880F880F880F9778892B82BB85E08A9589
:100E2000F1F70000979895E09A95F1F700000CCC47
:100E300008958C5ED0CF8C5ACECFCF93DF931F9284
:100E4000CDB7DEB794D1BE016F5F7F4F80E057D141
:100E5000811106C090E0892F0F90DF91CF91089506
:100E600069816F77698380E06AD1882399F3BE0135
:100E70006F5F7F4F82E043D1882361F369816064B3
:100E8000698382E05CD191E08111E5CFE3CFCF931C
:100E9000DF931F92CDB7DEB7BE016F5F7F4F80E05B
:100EA0002ED18981982F9077969596959695292F92
:100EB000220F220F290F8F70820F0F90DF91CF9199
:100EC0000895CF93DF931F92CDB7DEB7BE016F5F5A
:100ED0007F4F81E014D18981982F907796959695D0
:100EE0009695292F220F220F290F8F70820F0F90B6
:100EF000DF91CF910895CF93DF931F92CDB7DEB7E7
:100F0000BE016F5F7F4F82E0FAD0898184FB222788
:100F100020F9220F922F990F990F920F8F70890F3E
:100F20000F90DF91CF910895CF93DF931F92CDB7AC
:100F3000DEB7BE016F5F7F4F82E0E1D089818072B2
:100F400090E0959587959595879595958795959535
:100F500087950F90DF91CF9108959DEC899F912DFA
:100F6000112496959695969540E1949F90011124B1
:100F7000682F4AE0949F60191124622B80E0DFC043
:100F80009DEC899F912D112496959695969540E11B
:100F9000949F90011124682F4AE0949F60191124B6
:100FA000622B81E0CCC01F93CF93DF931F92CDB70C
:100FB000DEB7182FBE016F5F7F4F82E0A0D089811E
:100FC0009DEC199F912D112496959695969540E14B
:100FD000949F90011124612F4AE0949F601911247D
:100FE000622B85FF08C0606682E0A9D00F90DF9178
:100FF000CF911F910895606482E0A1D00F90DF919E
:10100000CF911F9108951F93CF93DF931F92CDB778
:10101000DEB7182FBE016F5F7F4F82E070D069810D
:10102000111109C06F7D698382E089D00F90DF9133
:10103000CF911F9108956062698382E080D00F9004
:10104000DF91CF911F910895FF920F931F93CF933C
:10105000DF931F92CDB7DEB78C01BE016F5F7F4F6C
:1010600080E04DD0811108C080E00F90DF91CF91DA
:101070001F910F91FF900895F80113868DE48287E8
:1010800080E280878981982F9F70905D9783807719
:1010900082958F70805D86833AE3F32EF582BE01E0
:1010A0006F5F7F4F81E02BD08823F1F28981982FE9
:1010B0009F70905DF8019483807782958F70805D3A
:1010C0008383F282BE016F5F7F4F82E018D0882356
:1010D00059F28981982F9F70905DF801918384FB6C
:1010E000992790F9905D908385FD05C081E4F80112
:1010F000818781E0BACF80E5818781E0B6CF1F93F9
:10110000CF93DF93182FEB013BD080ED45D08111B9
:1011100005C080E0DF91CF911F910895812F3CD0D1
:101120008823B9F32DD081ED37D0882391F360E087
:10113000CE0149D0882369F329D081E0EBCFCF934A
:10114000DF93C82FD62F1CD080ED26D0811104C08C
:1011500080E0DF91CF9108958C2F1ED08823C1F3BA
:101160008D2F1AD08823A1F311D081E0F2CF82E035
:1011700080B981B1836081B986B7846086BF0895E4
:1011800084EA86BF06B607FEFDCF089584E986BFD0
:1011900006B604FCFDCF089583B984E886BF06B681
:1011A00007FEFDCF81B1887F883159F081B1887FFA
:1011B000883239F091B1987F81E0903419F080E065
:1011C000089581E0089526B76623B9F0206426BF0C
:1011D00026B7206826BF06B607FEFDCF21B1287FBF
:1011E000283531F021B1287F203511F080E00895B5
:1011F00023B1FC01208381E008952F7B26BFE8CF37
:1012000097FB072E16F4009406D077FD08D00BD07C
:1012100007FC05D03EF4909581959F4F08957095F9
:1012200061957F4F0895AA1BBB1B51E107C0AA1F00
:10123000BB1FA617B70710F0A61BB70B881F991F77
:101240005A95A9F780959095BC01CD010895F89421
:02125000FFCFCE
:10125200FFFF0000040E0400000000040E1F0E0435
:101262000000040404041F0E04000A15110A0400FD
:1012720000000A1F1F0E040000000C12120C0000D6
:101282000000040E1F0404040400010214080000FC
:10129200000030303A30303A3030202020203C4FAD
:1012A2004B3E00504D00414D005E5E0043616E6E4C
:1012B2006F74205365742054696D65004D657373B6
:1012C2006167652021004D61696E2054696D65205A
:1012D20053657400445331333037204E6F742046C7
:1012E2006F756E640078426F617264204D494E4999
:1012F2002076322E300049324320692F6F2045720A
:06130200726F7220210051
:00000001FF
